:020000040800F2
:1000000000040020470100089D0200089F0200082C
:10001000A3020008A7020008AB02000800000000CD
:10002000000000000000000000000000AF02000817
:10003000B102000800000000B3020008B502000889
:1000400067010008670100086701000867010008F0
:1000500067010008670100086701000867010008E0
:1000600067010008670100086701000867010008D0
:1000700067010008670100086701000867010008C0
:1000800067010008670100086701000867010008B0
:1000900067010008670100086701000867010008A0
:1000A0006701000867010008670100086701000890
:1000B0006701000867010008670100086701000880
:1000C0006701000867010008670100086701000870
:1000D00067010008FD0300086701000867010008C8
:1000E0006701000867010008670100086701000850
:1000F0006701000867010008670100086701000840
:10010000670100086701000867010008670100082F
:10011000670100086701000867010008670100081F
:10012000670100086701000867010008670100080F
:10013000DFF80CD001F074FE00480047970100087A
:1001400080050020704708488047084981F30888E7
:1001500007480047FEE7FEE7FEE7FEE7FEE7FEE7AB
:10016000FEE7FEE7FEE7FEE7450100088005002008
:100170003101000870B505460C462146284600F0BE
:10018000B3F91F21204600F0E7F986B22146304638
:1001900000F0FCF970BD98B001F038FA00F0A1F859
:1001A000322105A801F063FA364B0FCBCDE90323CA
:1001B000CDE9010165E03449096801EB4101334AA9
:1001C00002EB810012A900F0E9F901A912A8FFF7DA
:1001D000D1FF00240AE04FF4167000F069F901A87D
:1001E00030F814102A4801F098F8641C212CF2DB36
:1001F0004FF47A7000F05CF900BF12A800F0B9FB70
:100200000028FAD039E0234800F052F9214800F0E4
:100210004FF9204800F04CF900201B4908602BE002
:100220001949096801EB41011B4A02EB810012A93F
:1002300000F0B4F901A912A8FFF79CFF00240AE01E
:100240004FF4167000F034F901A830F8141010487B
:1002500001F063F8641C212CF2DB4FF47A7000F09B
:1002600027F900BF12A800F084FB0028FAD000BFD5
:10027000054800681428FBDCD2E7034800682928F9
:10028000C1DC98E738290008F402002000000020B3
:1002900000380140404B4C00F8010020704700BF7F
:1002A000FEE700BFFEE700BFFEE700BFFEE77047C6
:1002B000704770477047000008B54FF4A06001F028
:1002C000C5F825208DF8000000208DF801000320DE
:1002D0008DF8020001208DF80300684601F0BBF89C
:1002E00008BD00B585B0012144F2040000F092FE83
:1002F0004FF40070ADF8100018208DF813000320A3
:100300008DF8120004A96F4800F0E8FB4FF48060FC
:10031000ADF8100004208DF8130004A9694800F01E
:10032000DDFB4FF4E13000900020ADF80400ADF8A3
:100330000600ADF80800ADF80C000C20ADF80A007E
:100340006946614800F013FFFFF7B6FF012240F253
:1003500025515D4800F085FF01215B4800F075FFE5
:1003600005B000BD10B504462146574800F0D5FF42
:1003700000BF8021544801F027F80028F9D010BDB3
:1003800010B504462021504801F01EF808B900209D
:1003900010BD4D4800F0C5FF20700120F8E708B5FA
:1003A000002000900AE004E09DF80010464800F0AC
:1003B000B4FF6846FFF7E4FF0028F5D1F3E710B576
:1003C000414800F0AEFF4149414A126821F812004D
:1003D0003F480068401C3E49086010BD00200021D5
:1003E00009E03C4A32F811203B4B33F811309A4275
:1003F00000D0401C491C0829F3DB704770B540F25F
:100400002551314800F0ECFF00284BD0FFF7D7FF13
:100410002F480068082824D12C488088552820D1EE
:10042000002406E0294830F814002A4921F8140075
:10043000641C082CF6DBFFF7D1FF20B927480068C1
:10044000401C26490860002021490860002606E07B
:1004500000212048214A126820F81210761C082E2C
:10046000F6DB1B480068112814D1184880880C2836
:1004700010D1002506E0154830F81500184921F87C
:1004800015006D1C112DF6DB0120164908600020B7
:100490000F4908600E480068112802DB00200C4953
:1004A000086000BF40F22551074800F0BFFF70BD53
:1004B00001B502E00098401E009000980028F9D194
:1004C00008BD000000080140003801402C03002056
:1004D000FC0200204E03002000030020F402002054
:1004E0005E03002010030020F0B598B004460D46CE
:1004F000002217E04FF07F46002110E054F822C0A0
:100500000CEA0607C1F1030C4FEACC0C27FA0CF7F2
:10051000EC460CEB021C4CF82170360A491C0429ED
:10052000ECDB521C062AE5DB002011E08700BE1D33
:1005300001230AE06F4607EB001C5F1E3CF82770A2
:1005400003EB060C25F81C705B1C052BF2DB401C32
:100550000628EBDB18B0F0BD70B502460B464FF62F
:10056000FF7000210FE032F811607040002507E0B5
:1005700000F00104400814B14AF2010670406D1CFD
:10058000082DF5DB491C9942EDDB70BD10B5C3B2F7
:10059000C0F30722CB87A1F8402010BD2DE9F04F12
:1005A0009DB005460E46BC481690BC481590DFF835
:1005B000F082BC4FDFF8F092DFF8F0A2BC49286867
:1005C00001F0B8F81490BA49686801F0B3F81390D4
:1005D000B749A86801F0AEF80990169901F0A4F89F
:1005E00083464946484601F0A5F8514608905046D2
:1005F00001F0A0F80790089901F044F8099002F082
:10060000C9F812905146484601F0C4FD1190394690
:10061000384601F08FF804901399084601F08AF8E3
:1006200002901499084601F085F80190029901F0B2
:1006300029F80390049901F077F8059002F0AAF8E0
:10064000079087F000400690079901F0A3FD0990FC
:10065000DDE9130101F09EFD0890099901F064F8AD
:100660001790179801F0C4FE0890159901F062F8F0
:100670000990149901F05BF81090179801F0B8FEFA
:1006800001460790384601F087F80990179801F065
:10069000BBFF0690159901F04DF80790139901F0F2
:1006A00046F80890099901F03FF80F90179802F06A
:1006B00087F83946079001F03DF809900F990846F0
:1006C00001F038F806901099084601F033F80590CB
:1006D000069900F0D7FF079002F05CF8089009999E
:1006E00000F0D0FF0E905946584601F023F80890CC
:1006F0000E99084601F01EF80790089900F0C2FF15
:10070000099002F047F80D9058460E9901F042FD0D
:100710000C9038070D9901F00DF84146069001F054
:1007200009F808901299084601F004F806900D990E
:10073000084600F0FFFF41460490404600F0FAFFF3
:100740000390049900F09EFF0590069900F0ECFFDD
:100750000790089901F020F8099001F08BFC0B90AC
:100760000C9801F08CF9CDE906010B9801F087F99E
:10077000504A514BCDE9020101F0F0F8CDE90401F6
:10078000DDE9062301F0E7F881F00041CDE9080139
:1007900001F088F918903807129900F0CBFF414614
:1007A000069000F0C7FF08900D99084600F0C2FFC0
:1007B00006901299084600F0BDFF4146049040465D
:1007C00000F0B8FF0390049900F05CFF05900699D3
:1007D00000F0AAFF0790089900F0DEFF099001F0F1
:1007E00049FC0A90119801F04AF9CDE906010A98EE
:1007F00001F045F92F4A304BCDE9020101F0ABF889
:10080000CDE90401DDE9062301F0A5F8CDE90801F1
:1008100001F048F9199000201A90189801F02FF96A
:10082000CDE90601199801F02AF9224A224BCDE9B7
:10083000020101F093F8CDE90401DDE9062301F09E
:100840008AF8CDE9080101F02DF91B90179880F086
:1008500000401C90002419E017A850F824101748F5
:1008600000F068FF039001F00AF9124A144BCDE939
:10087000040101F076F8CDE9060101F07BFECDE937
:10088000080101F0DDF846F82400641C062CE3DBC7
:1008900030461DB0BDE8F08F0000F443CDCC2843B6
:1008A000B4F02244B4C80441F2D22143AE071F443D
:1008B00000007A44182D4454FB21F93F00C82F480A
:1008C000FB2109402DE9F04F024688790006B1F876
:1008D00008B040EA0B40B1F80AB040EA0B20B1F88A
:1008E0000CB040EA0B06887B0006B1F810B040EA75
:1008F0000B40B1F812B040EA0B20B1F814B040EA56
:100900000B07887D0006B1F818B040EA0B40B1F83B
:100910001AB040EA0B20B1F81CB040EA0B0C136887
:1009200054689568981B002801DB834601E0C0F1FC
:10093000000BD846E01B002801DB834601E0C0F134
:10094000000BD946A5EB0C00002801DB834601E033
:10095000C0F1000BDA46B8F57A7F08DAB9F57A7F8C
:1009600005DABAF57A7F02DA0120BDE8F08F0020BF
:10097000FBE72DE9FF4107464FF000081E4B0FCB68
:100980008DE80F001D48FFF793FD002509E04FF4A7
:100990001670FFF78DFD3DF81510194800F0BDFCED
:1009A0006D1C082DF3DB00BF164800680028FBD043
:1009B0000F211548FFF7D0FD86B2F0B21249C98B5E
:1009C000884209D11048008CB0EB162F04D10E4993
:1009D0003846FFF777FF804600200A490860002468
:1009E00004E00020084921F81400641C112CF8DBF5
:1009F000404604B0BDE8F08148290008A086010007
:100A000000380140100300205E03002010B50446AA
:100A1000C649601A8C422FD009DCC548204480B1F9
:100A2000B0F5806F16D0B0F5006F4AD11BE0B0F57D
:100A3000806F2AD0B0F5006F30D0B0F5406F40D154
:100A400035E00121042000F0FFFA0021042000F02D
:100A5000FBFA37E00121082000F0F6FA0021082017
:100A600000F0F2FA2EE00121102000F0EDFA002152
:100A7000102000F0E9FA25E00121202000F0E4FA3E
:100A80000021202000F0E0FA1CE00121402000F0CD
:100A9000DBFA0021402000F0D7FA13E0012180208A
:100AA00000F0D2FA0021802000F0CEFA0AE0012105
:100AB000080200F0C9FA00214FF4807000F0C4FA77
:100AC00000E000BF00BF10BD10B50121084600F0D6
:100AD000BBFA0021012000F0B7FA10BD2DE9F0416A
:100AE000024600250026002000230024002791F85C
:100AF00003C00CF00F0591F803C00CF0100CBCF112
:100B0000000F03D091F802C04CEA050591F800C02F
:100B1000BCF1000F31D0146800202BE04FF0010C25
:100B20000CFA00F3B1F800C00CEA03069E4220D193
:100B300083004FF00F0C0CFA03F7BC4305FA03FCDB
:100B40004CEA040491F803C0BCF1280F06D14FF021
:100B5000010C0CFA00FCC2F814C00AE091F803C0C2
:100B6000BCF1480F05D14FF0010C0CFA00FCC2F8A3
:100B700010C0401C0828D1D31460B1F800C0BCF1EB
:100B8000FF0F34DD546800202EE000F1080C4FF018
:100B9000010808FA0CF3B1F800C00CEA03069E4203
:100BA00021D183004FF00F0C0CFA03F7BC4305FA78
:100BB00003FC4CEA040491F803C0BCF1280F05D1F2
:100BC00000F1080C08FA0CF8C2F8148091F803C080
:100BD000BCF1480F07D100F1080C4FF0010808FAEA
:100BE0000CF8C2F81080401C0828CED35460BDE831
:100BF000F0814FF6FF710180022181700421C170E4
:100C000070470246002093680B400BB1012000E0C2
:100C1000002070470146886880B270470246002075
:100C2000D3680B400BB1012000E000207047014663
:100C3000C86880B2704701617047416170470AB16E
:100C4000016100E041617047C16070474FF480323C
:100C50000A438261816182618269826970470246CA
:100C60000020344B18684FF68073184040EA021099
:100C70000843304B186070472F49C8617047F0B582
:100C80000A4600230024002100252A4E7168C0F383
:100C9000034583B200F44016B6F5401F08D121F099
:100CA0007061244E766826F07066224F7E6012E0F6
:100CB00000F48016B6F5801F06D1032606FA05F467
:100CC000A14341F0706106E0460D360103FA06F6D5
:100CD000B14341F0706122B1460D360103FA06F6C8
:100CE0003143144E7160F0BD30B500228B071C0FEC
:100CF0000F2303FA04F20F4B08338C1053F82430FF
:100D000093430C4C08348D1044F8253023468C1046
:100D100053F824308C07240F00FA04F42343054CC5
:100D200008348D1044F8253030BD00000014014017
:100D300000F8FEBF0000014000002042DE480068CD
:100D400040F00100DC49086008464068DB49084083
:100D5000D949486008460068D9490840D649086022
:100D60000846006820F4802008600846406820F4A7
:100D7000FE004860002088607047CF49096821F470
:100D80008031CD4A11601146096821F4802111603B
:100D9000B0F5803F03D0B0F5802F0ED106E0C649F4
:100DA000096841F48031C44A116007E0C24909680A
:100DB00041F4A021C04A116000E000BF00BF7047AD
:100DC00010B501460022002300204A11012A02D159
:100DD000B94C236806E0022A02D1B74C236A01E02D
:100DE000B54C636A01F01F02012494401C400CB111
:100DF000012000E0002010BD38B500200090002444
:100E0000002500BF3120FFF7DBFF05460098401C9E
:100E100000901DB90098B0F5A06FF3D13120FFF715
:100E2000CFFF08B1012400E00024204638BD014670
:100E30000020A14A106820F0F80040EAC1001060CC
:100E40007047A04908607047024600209A4B5868D6
:100E500020F47C1042EA01031843974B5860704716
:100E600098490866704701460020934A506820F070
:100E700003000843506070478F48406800F00C0042
:100E80007047014600208C4A506820F0F00008436B
:100E90005060704701460020874A506820F4E060A7
:100EA00008435060704701460020834A506820F490
:100EB000605040EAC1005060704729B17E4A527AC2
:100EC00002437D4B5A7204E07B4A527A82437A4B4A
:100ED0005A7270477B49D83108607047014600203C
:100EE000754A506820F44040084350607047002124
:100EF000714A20321170704A82F82010012802D005
:100F000004280AD104E001216B4A2032117005E067
:100F10000521694A2032117000E000BF00BF704710
:100F20006949086070476449096A0143624A11626D
:100F30007047654944390860704730B50021002288
:100F4000002400235C4D6D6805F00C0121B10429DB
:100F500005D0082923D105E05C4D056022E05B4DFA
:100F600005601FE0544D6D6805F47012022505EB15
:100F70009242514D6D6805F480341CB9544D55436F
:100F800005600BE04C4D6D6805F400351DB1504D0A
:100F90005543056002E04D4D5543056002E04B4D61
:100FA000056000BF00BF444D6D6805F0F001090900
:100FB000484D6B5C0568DD4045603F4D6D6805F44C
:100FC000E061090A434D6B5C4568DD4085603A4D40
:100FD0006D6805F46051C90A3E4D6B5C4568DD40A3
:100FE000C560354D6D6805F44041890B3A4D6B5C29
:100FF000C568B5FBF3F5056130BD29B12E4A5269CC
:1010000002432D4B5A6104E02B4A526982432A4B1A
:101010005A61704729B1284A92690243264B9A6166
:1010200004E0254A92698243234B9A61704729B1B3
:10103000214AD2690243204BDA6104E01E4AD26998
:1010400082431D4BDA61704729B11B4AD2680243C3
:10105000194BDA6004E0184AD2688243164BDA6012
:10106000704729B1144A12690243134B1A6104E014
:10107000114A12698243104B1A6170471249403974
:10108000086070470F49C86470470B49C8717047C2
:101090000948406A40F0807007494862704701463D
:1010A0000020054A92680A400AB1012000E00020B1
:1010B0007047014988727047001002400000FFF835
:1010C000FFFFF6FE000042428004424200127A0016
:1010D00000093D00140300202403002010B504463D
:1010E000D749601A8C422BD006DCD648204498B1F0
:1010F000B0F5806F38D119E0B0F5806F2AD0B0F527
:101100006C4F31D101218803FFF79EFF00214FF47E
:101110008040FFF799FF28E001214804FFF7A1FF75
:1011200000214FF40030FFF79CFF1EE001218804EE
:10113000FFF797FF00214FF48020FFF792FF14E0A4
:101140000121C804FFF78DFF00214FF40020FFF7B5
:1011500088FF0AE001210805FFF783FF00214FF413
:101160008010FFF77EFF00E000BF00BF10BD2DE93B
:10117000F04786B005460E460024A24600BF00BFD9
:1011800000272F462C8A4CF6FF700440F088044359
:101190002C82AC894EF6F3100440B08831890843A4
:1011A000718908430443AC81AC8A4FF6FF40044088
:1011B000B0890443AC8201A8FFF7BFFEA248874272
:1011C00002D1DDF810A001E0DDF80CA00AEBCA00A6
:1011D00000EB0A1031688900B0FBF1F86420B8FB1D
:1011E000F0F004012009642101FB1089322000EB9A
:1011F0000910B0FBF1F000F00F0004432C8106B0A1
:10120000BDE8F0874FF41651016000218180C18054
:1012100001810C21418100218181704710B5024676
:101220000020108A4FF2FF0318400B884C8823439C
:101230008C882343CC8823431843108210BD00219F
:10124000018041808180C180704721B1828942F450
:101250000052828104E082894DF6FF731A40828138
:101260007047F0B5034600240026002500201846EC
:10127000C1F3421401F01F06012707FA06F5012CFD
:1012800001D10C3004E0022C01D1103000E0143008
:101290001AB107682F43076002E00768AF43076091
:1012A000F0BD1AB1838A0B43838202E0838A8B43A9
:1012B00083827047028A4FF6F0731A400282028AD4
:1012C0000A430282704782894FF2FF731A4082817B
:1012D00082890A438281704721B1828942F00202E9
:1012E000828104E082894FF6FD731A408281704743
:1012F000028A4FF6DF731A400282028A0A43028290
:10130000704721B1028A42F48042028204E0028ADC
:101310004BF6FF731A4002827047C1F308028280C5
:10132000704701468888C0F308007047818941F002
:10133000010181817047028BD2B20283028B42EAA3
:10134000012202837047028B02F47F420283028BE8
:101350000A430283704721B1828A42F020028282CE
:1013600004E0828A4FF6DF731A408282704721B10F
:10137000828A42F01002828204E0828A4FF6EF7382
:101380001A408282704721B1828A42F0080282822A
:1013900004E0828A4FF6F7731A4082827047828A8D
:1013A0004FF6FB731A408282828A0A438282704718
:1013B00021B1828A42F00202828204E0828A4FF6E0
:1013C000FD731A40828270470246002013880B404A
:1013D0000BB1012000E000207047CA430280704733
:1013E00070B502460B460024002100250020C3F3FF
:1013F000421503F01F01012606FA01F1012D02D169
:101400009689314006E0022D02D1168A314001E072
:10141000968A31401C12012606FA04F416883440DC
:1014200011B10CB1012000E0002070BD10B5002208
:1014300000230A1201249440A3B2DC43048010BDAF
:10144000004C004000BCFFBF00380140314901435F
:10145000314A1160704770B5002100230F22C47813
:1014600004B32D4C246804F4E064C4F5E064210A5C
:10147000C1F10403CA40447804FA03F184781440AB
:1014800021430901254C0678A155047804F01F0575
:101490000124AC4005786D11AD0005F1E025C5F8DB
:1014A000004109E0047804F01F050124AC401C4D04
:1014B0000678761145F8264070BD1A4A0A40024364
:1014C000154B1B1F1A60704739B1134A121D126861
:1014D0000243114B1B1D1A6006E00F4A121D1268D1
:1014E00082430D4B1B1D1A607047042808D14FF032
:1014F000E021096941F004014FF0E022116107E0A9
:101500004FF0E021096921F004014FF0E022116160
:10151000704700000000FA050CED00E000E400E078
:1015200080E100E080FFFF1F0CB5002001900090DB
:101530004748006840F480304549086000BF44488F
:10154000006800F4003000900198401C0190009861
:1015500018B90198B0F5A06FF1D13D48006800F4CA
:10156000003010B10120009001E0002000900098B0
:10157000012844D13748006840F010003549086020
:101580000846006820F0030008600846006840F044
:10159000020008602E4840682D49486008464068AF
:1015A00048600846406840F48060486008464068EB
:1015B00020F47C1048600846406840F4E810486019
:1015C0000846006840F08070086000BF204800684E
:1015D00000F000700028F9D01D48406820F003009A
:1015E0001B4948600846406840F00200486000BF60
:1015F0001748406800F00C000828F9D101E000BF4E
:10160000FEE70CBD10B5FFF78FFF10BD10B51048F9
:10161000006840F001000E490860084640680E4925
:1016200008400B494860084600680C4908400849D2
:1016300008600846006820F480200860084640687A
:1016400020F4FE00486000208860FFF7DBFF10BD3B
:1016500000100240002002400000FFF8FFFFF6FEED
:10166000D2B201E000F8012B491EFBD270470022E4
:10167000F6E710B513460A4604461946FFF7F0FF91
:10168000204610BDF0B480EA0102D40F4200B2EB54
:10169000410F02D20246084611464A0042D0C30D0D
:1016A000DDB2C1F3C752AD1A202D35DAC1F31601F0
:1016B00041F4000204B15242C5F1200602FA06F1DB
:1016C0002A411044B3EBD05F23D0C4B1012DA0EB6D
:1016D000C35009DCF0BC4FF0004202EAC352DBB257
:1016E00000F5000000F034BA400000F1807000EB1B
:1016F000C350A0F1807040EAD170490009E0490868
:1017000041EAC071A0EBC35000F50000400800EBB7
:10171000C350F0BC00F013BA6142012202EB410158
:10172000001BF6E7F0BC704781F00041AAE780F0AB
:101730000040A7E780EA010210B502F00043400034
:1017400022D04A001FD0010E01EB1261C0F35600F7
:10175000C2F3560240F4000042F40002A0FB022053
:1017600000047F39140400D0401C50EA124001D418
:101770004000491EC2B20C0604EBD010401C4008C9
:10178000802A02D003E0002010BD20F001000029D3
:1017900000DA0020184310BD30B480EA010202F0E4
:1017A000004530F0004221F0004013D090B1C30D4D
:1017B000D40DC2F31601C0F31600E41A41F400017F
:1017C00040F400027D34914201D3641C00E04900E2
:1017D000002C02DA30BC002070474FF400000023D8
:1017E000914201D3891A034340084FEA4101F7D1DE
:1017F00051B1914202D14FF0004105E002D24FF0C9
:10180000010101E06FF0010103EBC450284430BC3A
:1018100000F095B92DE9FE4F804681EA0300C00F24
:101820000C46009021F0004123F00045B8EB020087
:10183000A94105D24046214690461C460B46024629
:1018400023F00040104347D0270DC7F30A00C3F32D
:101850000A510290401A019040286BDAC3F313003A
:1018600040F4801B0098924620B10023D2EB030A7B
:1018700063EB0B0B01985946C0F14002504600F053
:101880002DF906460D4650465946019A00F045F995
:1018900010EB08006141002487EA115284EAE773E3
:1018A0001A4340D0009A62B3019A012A4FEA0752C4
:1018B00015DC001B61EB02014FF0004202EA075207
:1018C000CDE90042001C41F5801132462B4600F064
:1018D000D3F903B0BDE8F08F40462146F9E7001B7D
:1018E00061EB0201001C41F5801300185B412018D8
:1018F000A2F5001747EB030140EAD570B6196D4118
:1019000011E06D084FEA360645EAC0754FEA075206
:10191000001B61EB0201001C41F5801149084FEAF0
:1019200030000019514132462B4603B0BDE8F04F5C
:1019300000F095B90098012240000023D0EB02028C
:1019400063EBE073009821464FEAE074B8EB0000C7
:1019500061EB0401E9E783F000435BE781F00041BC
:1019600058E72DE9F04D81EA030404F0004B21F023
:10197000004514464FF0000A23F0004150EA0502EA
:1019800020D054EA01021DD0C5F30A570246C5F320
:101990001303C1F31300C1F30A5640F4801543F456
:1019A0008013A7EB0608101BD64608F2FD3873EB30
:1019B000050002D308F1010801E092185B41B8F17B
:1019C000000F03DA00200146BDE8F08D00204FF43F
:1019D0008011064684460EE0171B73EB050705D3FE
:1019E000121B63EB050306434CEA010C49084FEA5E
:1019F000300092185B4150EA0107EDD152EA030032
:101A000012D082EA040083EA0501084305D0101BC6
:101A1000AB4106D20122002306E000224FF0004332
:101A200002E06FF0010253101AEB06004CEB085174
:101A300010EB0A0041EB0B01BDE8F04D00F00FB9CF
:101A400070B5C1F30A5201F000450024C1F313013F
:101A500040F2FF3341F480119A4201DA002070BD58
:101A600040F233439A42A2F2334203DC524200F086
:101A700044F800E090402C43F1D0404270BD00F0AB
:101A8000004230F000400AD0C10D01F56071C0F392
:101A9000160042EA0151C208400711437047002076
:101AA0000146704701F0004330B421F0004150EA94
:101AB000010206D00A0DA2F56072C1F31301002ADB
:101AC00002DC30BC00207047440F44EAC104C1006E
:101AD000E01830BC00EBC25000F031B8202A04DB23
:101AE000203A00FA02F1002070479140C2F1200331
:101AF00020FA03F3194390407047202A04DB203A70
:101B000021FA02F00021704721FA02F3D040C2F11D
:101B100020029140084319467047202A06DBCB1764
:101B2000203A41FA02F043EAE07306E041FA02F398
:101B3000D040C2F120029140084319467047002965
:101B4000A8BF7047401C490008BF20F00100704743
:101B500010B4B0FA80FC00FA0CF050EA010404BFA3
:101B600010BC704749B1CCF1200421FA04F411FAF9
:101B70000CF118BF012121430843A3EB0C01CB1D3D
:101B80004FEA00614FEA102042BF002010BC7047AE
:101B900000EBC35010440029A4BF10BC7047401C88
:101BA000490008BF20F0010010BC7047420005D07A
:101BB000C0F3C7525242914201DC0020704700EB53
:101BC000C1507047F0B4002802DCF0BC0020704720
:101BD000C0F3C751C0F3160040F40000CA0701D19A
:101BE0004000491E3F2202EB6105002211464FF4DE
:101BF000000626FA01F31344D418844201D8001BCE
:101C00001A464000491C1729F3DD5100814202D2D7
:101C10004FF0FF3100E0002102EBC550F0BCFFF7B0
:101C20008EBF10B541000CD0C0F3C751962908DC17
:101C30007E2909DC06DB410204D000F0004040F0C0
:101C40007E5010BD002010BDC1F19604C4F12001EA
:101C500000FA01F1E040FFF772FFA04010BD10B59F
:101C6000002B08DA401C41F1000192185B411A4335
:101C700001D120F0010010BD2DE9F04D92469B46A8
:101C800011B1B1FA81F202E0B0FA80F2203290464E
:101C9000FFF724FF04460F4640EA0A0041EA0B0121
:101CA00053465A46084313D0114653EA010019D04F
:101CB000C8F140025046FFF720FF05460E46504649
:101CC00059464246FFF70AFF084305D0012004E0C9
:101CD00020463946BDE8F08D0020054346EAE0760F
:101CE0002C4337430A986305E40AA0EB080000225E
:101CF000FD0A44EA47540A3002D500200146E9E7CC
:101D0000010510196941DDE9084500196941BDE87F
:101D1000F04DA4E72DE9F041054621F000400C46C6
:101D2000284309D0C4F30A5040F23341884205DD0C
:101D300028462146BDE8F0812846FBE740F2FE3107
:101D4000884210DC0CDB4FEA043040EA155050EAC0
:101D5000053105D0104804F0004101430020E9E7B7
:101D600000200146E6E7A0F233404642C6F14002B9
:101D700028462146FFF7B2FE0746884628462146F8
:101D80003246FFF7BAFE43463A46FFF768FF32464F
:101D9000BDE8F041FFF7A2BE0000F03F00F00042B6
:101DA00020F00040C10DC0F3160040F400007F2970
:101DB00001DA00207047962903DCC1F19601C84082
:101DC00001E096398840002AF4D040427047000074
:101DD00030B5002904DB4FF00044404264EB0101C0
:101DE000002B04DB4FF00044524264EB03038B42B0
:101DF00008BF824230BD000030B5002904DB4FF03F
:101E00000044404264EB0101002B04DB4FF000442E
:101E1000524264EB0303994208BF904230BD000078
:101E2000064C074D06E0E06840F0010394E8070027
:101E300098471034AC42F6D3FEF77EF978290008B3
:101E400098290008C10F80EAE0700844CA07962369
:101E50000021FFF77DBE962300221146FFF778BED2
:101E600070B58D1810F8014B14F0030201D110F871
:101E7000012B231106D110F8013B03E010F8016B90
:101E800001F8016B521EF9D1ABB110F8012B04F02F
:101E90000C048A1A0C2C03D0A2EB84129B1C08E0C1
:101EA00010F8014BA2EB0422F8E712F8014B01F8FD
:101EB000014B5B1EF9D5A942D4D3002070BD41006F
:101EC000080218BF04200A0E18BF40F001004FF0AE
:101ED0007F4232EA010108BF40F00200012808BF3A
:101EE000052070476FF05E010807FFF75FBE000036
:101EF0002DE9F04D0E4614464FF07F41B1EB440FF3
:101F00009EBF4FF0FF313160BDE8F08D4FF00040D3
:101F100040EA0421C4F3C7507838431100F01F0091
:101F2000DFF814C1C0F12002FC445CF823500CEB34
:101F300083038540D3F804C02CFA02F72F439D6831
:101F40000CFA00FC25FA02F8DB6805FA00F023FA27
:101F500002F240EA02054CEA080CA7FB0132ACFB96
:101F600001C0A5FB015101EB0C058D4234BF4FF0C0
:101F7000010C4FF0000CC1186144BCF1000F02D0FD
:101F8000814202D903E0814201D2012000E0002019
:101F9000104400F120024FEA92188006CA0C40EA71
:101FA00042304F03C6F80080FFF74CFF82463846A8
:101FB000FFF751FF6FF01201FFF7F8FD07462846C3
:101FC000FFF749FF6FF02501FFF7F0FD8346394623
:101FD0005046FFF757FB5946FFF754FB00F50065E5
:101FE0006FF30B0551462846FFF79EFB3946FFF776
:101FF0009BFB5946FFF79BFB1049FFF79BFB0746EE
:102000000F492846FFF796FB3946FFF73BFB07468B
:102010000C492846FFF78EFB3946FFF733FB14F0D7
:10202000004F08BFBDE8F08DC8F1805180F000403E
:102030003160BDE8F08D00002C0A0000DB0FC92FD5
:1020400022AAFD290000C92F02E008C8121F08C1FA
:10205000002AFAD170477047002001E001C1121F29
:10206000002AFBD17047000001490860704700005A
:10207000280300202DE9F04104464FF01A4000EB00
:102080004400B0F1C85F204655D84FF0FC41B1EB99
:10209000440F1CD224F000404FF07E51FFF747FB65
:1020A0004FF0FF31FFF782FD074600F073FB14F09D
:1020B000004F1DBF2D4E2E4D80F00040002608BF62
:1020C00035464FF04041FFF735FB044605E0294E09
:1020D000294D0146FFF72EFB074628493846FFF7F2
:1020E00029FB2749FFF7CEFA3946FFF723FB25499D
:1020F000FFF7C8FA3946FFF71DFB2349FFF7C2FA7D
:102100003946FFF717FB2149FFF7BCFA80463946ED
:102110002046FFF70FFB4146FFF70CFB0746294619
:102120002046FFF704FB3946FFF7FEFA3146BDE8CB
:10213000F041FFF7A7BA4FF0CC41B1EB440F84BF99
:102140001348BDE8F0814FF07F41B1EB440F04D25A
:10215000BDE8F0410121FFF729BD0120FFF784FF11
:10216000BDE8F04100210846FFF716BB00004940DA
:1021700022AA7D3A0000C93F22AAFD3924FE1C3D57
:10218000C78AD83C1E67383D1B93993DAFAA2A3EAB
:10219000DB0FC93F2DE9F0474FF0684202EB4003E7
:1021A0000C460546B3F1654F3CBF02EB4102B2F16C
:1021B000654F7CD2C0F3C753C1F3C7529A1A1B2A8A
:1021C00006DD10F0004F14BF76487748BDE8F08771
:1021D00012F11A0F17DA11F0004F06D010F0004F6D
:1021E0000CBF72487248BDE8F08721462846FFF7C9
:1021F000D3FA0446FFF763FE042808BFFFF772FE18
:102200002046BDE8F0874200B2EB410F25D910F01F
:10221000004F19BF674F684E684F694E224685F0E0
:10222000004415460A4680F0004110460A1A520042
:10223000B2F1807F40D248406249DFF88CA110F0B3
:10224000004F18D04FF03F483846FFF76DFA074669
:1022500051463046FFF768FA17E011F0004F04BF0F
:1022600000263746E2D010F0004F19BF574F584EA6
:10227000584F594EDAE74FF07C583846FFF702FACC
:10228000074651463046FFF7FDF9064641462846C7
:10229000FFF750FA2146FFF7F5F9824621464046FE
:1022A000FFF748FA2946FFF742FA514600E037E0C7
:1022B000FFF772FA044604E021462846FFF76CFA5D
:1022C00004460146FFF736FA80464449FFF732FAE2
:1022D0004349FFF7D7F94146FFF72CFA4149FFF789
:1022E000D1F94146FFF726FA3F49FFF7CBF94146BE
:1022F000FFF720FA3D49FFF7C5F90546414620465C
:10230000FFF718FA2946FFF715FA3146FFF7BAF931
:102310002146FFF7B7F93946BDE8F047FFF7B2B9F4
:102320004FF07F42B2EB400F28BFB2EB410F03D218
:10233000BDE8F047FFF7A6B940EA01035B0008BF1C
:1023400044F0FF410AD0B2EB400F08BFB2EB410F9F
:1023500006D125F0804024F0804105460C4629E74F
:10236000B2EB400F12BF5FEA410245F0FF4004F0BC
:1023700000413FF41FAF4A0092EA40033FF51AAF15
:10238000002AACBF4FF09F464FF03E563146FFF754
:10239000D1F9054631462046FFF7CCF904462846D8
:1023A000214607E7DB0FC9BFDB0FC93FDB0F494001
:1023B000DB0F49C00000C9BF22AAFDB90000C93F18
:1023C00022AAFD390060ED3EC30ACE37000049C0A5
:1023D00022AA7DBA0000494022AA7D3A2DAD65BDF2
:1023E0008FB8D53D0FB511BE61C84C3EA8AAAABE94
:1023F0002DE9F8430446024651486946B0EB420FC6
:1024000009D94FF0E640B0EB420F94BF00204FF0E7
:10241000FF30009030E04B4B22F00040834271D9F6
:1024200049492046FFF786F9FFF7FBFB8046FFF797
:10243000B5FC00F00300009044494046FFF77AF9EC
:10244000054643494046FFF775F90646414940466F
:10245000FFF770F9074640494046FFF76BF9214600
:10246000FFF765F93946FFF75FF93146FFF75CF989
:102470002946FFF759F904462546009C002C45DB08
:10248000294614F0010F08461CD0FFF753F9064601
:102490003249FFF74FF93249FFF749F93146FFF763
:1024A00049F93049FFF7EEF83146FFF743F929467D
:1024B000FFF740F92946FFF7E5F814F0020F1CD0AA
:1024C000BDE8F883FFF736F905462749FFF732F9EB
:1024D0002649FFF7D7F82946FFF72CF92449FFF7DB
:1024E000D1F82946FFF726F94FF07E51FFF7CAF8D9
:1024F00014F0020F08BFBDE8F88380F00040BDE88B
:10250000F883FFE71046FFF7F3FCB4E76800B0F18B
:102510007F4F3CBF4FF07E50BDE8F88309D14FF0AC
:102520000100FFF7A1FDBDE8F84300210846FFF7D1
:1025300033B92846BDE8F8430121FFF737BB000057
:10254000B61F927E490E494683F9223F1A61342C08
:102550000020A23300A0FD390000C93F336D4C3983
:10256000DA82083CA0AA2ABEB93AB2BACA9F2A3D6A
:10257000DDFFFFBE2DE9F04D07460E46FFF7CAFB13
:1025800004460D463A463346FFF7E8F9DFF86CA0FB
:10259000DFF86CB01B4B0746884616F0004F4FF033
:1025A00000020AD0FFF714FC0AD900225B46384625
:1025B0004146FFF721FC1BD212E0FFF709FC08D2CD
:1025C0000022534620462946FFF7C5F904460D462A
:1025D0000EE000225B4638464146FFF70DFC07D867
:1025E0000022534620462946FFF714F904460D46BB
:1025F0003146204665F31E01BDE8F08D0000F03F36
:102600000000E03F0000E0BF2DE9F8430446024629
:1026100053486946B0EB420F09D94FF0E640B0EBA2
:10262000420F94BF00204FF0FF30009030E04D4B40
:1026300022F00040834271D94B492046FFF77AF8D7
:10264000FFF7EFFA8046FFF7A9FB00F003000090C8
:1026500046494046FFF76EF8054645494046FFF7B4
:1026600069F8064643494046FFF764F80746424981
:102670004046FFF75FF82146FFF759F83946FFF764
:1026800053F83146FFF750F82946FFF74DF8044656
:102690002546009C002C45DB294614F0010F084616
:1026A0001ED0FFF747F805463449FFF743F8344991
:1026B000FEF7E8FF2946FFF73DF83249FEF7E2FF53
:1026C0002946FFF737F84FF07E51FEF7DBFF14F095
:1026D000020F08BFBDE8F88380F00040BDE8F88332
:1026E000FFF728F806462849FFF724F82749FFF79F
:1026F0001EF83146FFF71EF82549FEF7C3FF3146A5
:10270000FFF718F82946FFF715F82946FEF7BAFF34
:1027100014F0020FE0D1BDE8F883FFE71046FFF7A1
:10272000E7FBB4E76800B0F17F4F09D22846FFF716
:10273000C6FB042808BFFFF7D5FB2846BDE8F88391
:1027400008D10120FFF790FCBDE8F84300210846BE
:10275000FFF722B82846BDE8F8430121FFF726BA63
:10276000B61F927E490E494683F9223F1A61342CE6
:102770000020A23300A0FD390000C93FB93AB2BA27
:10278000CA9F2A3DDDFFFFBE336D4C39DA82083C1B
:10279000A0AA2ABE70B50546FFF714FA044620F039
:1027A0000040C0F1FF40C00F08D025F00040C0F14C
:1027B000FF40C00F04BF0120FFF756FC204670BD4C
:1027C0002DE9F843044602464D486946B0EB420FF6
:1027D00009D94FF0E640B0EB420F94BF00204FF014
:1027E000FF30009030E0474B22F00040834265D933
:1027F00045492046FEF79EFFFFF713FA8046FFF794
:10280000CDFA00F00300009040494046FEF792FFE9
:1028100005463F494046FEF78DFF06463D49404686
:10282000FEF788FF07463C494046FEF783FF2146F6
:10283000FEF77DFF3946FEF777FF3146FEF774FF5E
:102840002946FEF771FF0446009D002D3ADB214624
:102850000846FEF76FFF06463049FEF76BFF30492A
:10286000FEF710FF3146FEF765FF2E49FEF70AFF1F
:102870003146FEF75FFF2C49FEF704FF3146FEF7B5
:1028800059FF2A49FEF7FEFE3146FEF753FF28495D
:10289000FEF7F8FE3146FEF74DFF2146FEF74AFFF0
:1028A0002146FEF7EFFE15F0010F08BFBDE8F883E3
:1028B0000146BDE8F8431F48FEF76EBF1046FFF71C
:1028C00017FBC0E76000B0F17F4F09D22046FFF749
:1028D000F6FA042808BFFFF705FB2046BDE8F88399
:1028E00008D10120FFF7C0FBBDE8F84300210846EE
:1028F000FEF752BF2046BDE8F8430121FFF756B965
:10290000B61F927E490E494683F9223F1A61342C44
:102910000020A23300A0FD390000C93FBBE9223CE2
:102920000C6D063B8A76CE3CACB5593D35A1083ED0
:1029300029AAAA3E000080BF0100100055008C00AB
:1029400000000C0018000000010003000800DC007B
:102950000000060006005200000000006E83F9A28D
:102960002915444ED15727FCC0DD34F5999562DB1B
:102970004190433CAB6351FE9829000800000020C1
:102980002C030000601E0008A82A00082C03002069
:1029900054020000582000083014F2D24D3FA69B8C
:1029A000C43D1283C03FDD24463F355EBA0C30087B
:1029B000EE7C3F3F77BE9F18300823DB393F4260F3
:1029C000652420092B87363F8FC2F53C3010067DE9
:1029D0003F353F0001911892BC3092BD4892BD60D6
:1029E0003118517831187004068155187004F62892
:1029F0005C307004C1CA61487004B81E6560700420
:102A0000666666785118923C30923D48923D6092DD
:102A10003D78910C3244F03008E7FB493F7F6A3C37
:102A2000181004F0A7463C321FFC10040AD743CC10
:102A300032E5F010044A0C42FC32750C7004378900
:102A40004184511892BC3092BC4892BD6091FC32D6
:102A500044F07004FCA951187004F4FD5430700463
:102A6000D9CE574870049A9959607004AC1C5AFC2E
:102A70005118923C30923C48923D60F1F001FAFCD2
:102A800092000118080100100055008CC6120C0AB3
:102A9000822B1820040203040420090607080902F7
:082AA0000406083400000000E8
:0400000508000147A7
:00000001FF
